:020000020000FC
:02000000FFC03F
:0200040014C125
:1000C0003F065B4F666D7D077F6F777C395E797188
:1002000008E00EBF0FEF0DBF0FEF04B90FE00DB9FF
:1002100000E40AB90FE30BB991E0A8E0B2E3CAE049
:1002200001E04DBB03E0409369007894FFCFF89460
:100230005B9B9395943009F491E0589BA395AB3068
:1002400009F4A1E0599BAA9509F4AAE05C9BBC0FB4
:10025000B43609F4BAE05D9BBC1B09F4BAE55A9BBD
:1002600001C0E6CF789418951F932F933F931FEF0B
:100270002FEF3AE53A95F1F72A95D9F71A95C1F794
:100280003F912F911F9108951F932F933F931FEF3D
:100290002FEF3BEF3A95F1F72A95D9F71A95C1F769
:0802A0003F912F911F91089579
:00000001FF
