:020000020000FC
:02000000FFC03F
:0200040018C121
:1000C0003F065B4F666D7D077F6F777C395E797188
:1002000008E00EBF0FEF0DBF0FEF04B90FE00DB9FF
:100210000FE307B900EC0AB90FE30BB991E0A4E0D2
:10022000B2E3C5E001E0202E112401E04DBB03E064
:100230004093690028C0F8940E94D4010E94D5011F
:100240005B9B9395943009F491E0589BA395A6305D
:1002500009F4A1E0599BAA9509F4A5E05C9BBC0FA9
:10026000BF3509F4BAE05D9BBC1BB53009F4BAE5B3
:100270005A9B03C00E940702DFCF0E94D4010E9454
:10028000D501122C1895789403E804BD0E946A01E8
:100290000E9481011214F1F711249130A1F39230E0
:1002A00019F0933061F0F6CF7894121499F7112475
:1002B000913049F39230C1F3933009F0F6CF78943E
:1002C000121441F711249130F1F2923069F3933016
:1002D000B1F3F6CFA13019F405E005BD0895A230C1
:1002E00019F404E005BD0895A33019F403E005BD39
:1002F0000895A43019F402E005BD089501E005BD9C
:100300000895BA3019F40AE107BD0895BF3019F411
:1003100006E207BD0895B43119F403E307BD08955B
:10032000B93119F400E407BD0895BE3119F40DE4A4
:1003300007BD0895B33219F40AE507BD0895B83230
:1003400019F406E607BD0895BD3219F403E707BDA9
:100350000895B23319F400E807BD0895B73319F4CE
:100360000DE807BD0895BC3319F40AE907BD0895E7
:10037000B13419F406EA07BD0895B63419F403EB55
:1003800007BD0895BB3419F400EC07BD0895B035DE
:1003900019F40DEC07BD0895B53519F40AED07BD44
:1003A000089506EE07BD08950895BF939F930F9398
:1003B0009130A9F4BA505F9ABF50AAF0409ABF504A
:1003C00092F0419ABA507AF0429ABA5062F0439A47
:1003D000BF504AF0449ABF5032F0459A04C000EC36
:1003E00008B95F9800C00F919F91BF9108951F9326
:1003F0002F933F931FEF2FEF3EE63A95F1F72A95A3
:10040000D9F71A95C1F73F912F911F9108951F9326
:100410002F9314E624E62A95F1F71A95D9F72F9130
:040420001F9108958B
:00000001FF
