:020000020000FC
:02000000FFC03F
:020004001EC11B
:1000C0003F065B4F666D7D077F6F777C395E797188
:1002000008E00EBF0FEF0DBF0FEF04B90FE00DB9FF
:100210000FE307B900EC0AB90FE30BB991E0A4E0D2
:10022000B2E3C5E001E0202E112401E00DBB02E0A5
:100230000093690000E80093610004E0009361000E
:100240002AC0F8940E94E8010E94E9014B9B939513
:10025000943009F491E0489BA395A63009F4A1E0FD
:10026000499BAA9509F4A5E04C9BBC0FBF3509F446
:10027000BAE04D9BBC1BB53009F4BAE54A9B03C0FC
:100280000E942902DFCF0E94E8010E94E901122C9E
:100290000E942902189503E804BD0E9476010E947D
:1002A00091010E94E90178940E94E8011214D9F7A3
:1002B0001124913081F3923019F0933061F0F3CF33
:1002C0007894121481F71124913029F39230C1F3FC
:1002D000933009F0F6CF7894121429F71124913055
:1002E000D1F2923069F39330B1F3F6CF0F93AF931D
:1002F000A13019F405E005BD11C0A23019F404E0E5
:1003000005BD0CC0A33019F403E005BD07C0A4303F
:1003100019F402E005BD02C001E005BDAF910F91E7
:1003200008950F93BF93BA3019F40AE107BD4DC089
:10033000BF3019F406E207BD48C0B43119F403E335
:1003400007BD43C0B93119F400E407BD3EC0BE315A
:1003500019F40DE407BD39C0B33219F40AE507BD3D
:1003600034C0B83219F406E607BD2FC0BD3219F407
:1003700003E707BD2AC0B23319F400E807BD25C062
:10038000B73319F40DE807BD20C0BC3319F40AE9EE
:1003900007BD1BC0B13419F406EA07BD16C0B63458
:1003A00019F403EB07BD11C0BB3419F400EC07BD11
:1003B0000CC0B03519F40DEC07BD07C0B53519F404
:1003C0000AED07BD02C006EE07BDBF910F9108956B
:1003D0000895BF939F930F935F9800E008B9913001
:1003E000A9F4BA505F9ABF50AAF0409ABF5092F059
:1003F000419ABA507AF0429ABA5062F0439ABF508A
:100400004AF0449ABF5032F0459A04C000EC08B953
:100410005F9800C00F919F91BF9108951F932F93F4
:100420003F931FEF2FEF3EE63A95F1F72A95D9F764
:100430001A95C1F73F912F911F9108951F932F9304
:1004400014E624E62A95F1F71A95D9F72F911F9112
:1004500008951F932F933F931FEF2FEF3FE03A959F
:10046000F1F72A95D9F71A95C1F73F912F911F916E
:020470000895ED
:00000001FF
