:020000020000FC
:02000000FFC03F
:020004001FC11A
:1000C0007F98B0C6D9E9F4FCFEFCF4E9D9C6B09833
:1000D0007F664E3825150A0201020A1525384E663C
:1002000008E00EBF0FEF0DBF0FEF04B90FE00DB9FF
:100210000EB90FE307B900EC0AB90FE30BB991E08F
:10022000A4E0B2E3C5E001E0202E112401E00DBB03
:1002300002E00093690000E80093610004E000938D
:10024000610006C0F894289A122C0E948402189526
:1002500003E804BD0E94A6010E94C1010E9427027A
:100260000E9418020E94840201E00CBB78940E9454
:1002700018021214E1F70E947C01913049F3923088
:1002800011F0933001F10E94840201E00CBB7894DC
:10029000A5E00E94A601F0E0E0EC10E0E0ECE10F48
:1002A000B491B7BD0E947E0213951F3109F410E08E
:1002B0001214A1F7B2E30E947C01913049F292300E
:1002C00011F3933001F003E804BDA4E0B2E30E940F
:1002D000A6010E94C1010E9427020E9418020E94EA
:1002E000840201E00CBB78940E9418021214E1F71A
:1002F0000E947C010C943D01F89411240E94180284
:100300000E9427024B9B9395943009F491E0489BFF
:10031000A395A63009F4A1E0499BAA95A03009F461
:10032000A5E04C9BBC0FBF3509F4BAE04D9BBC1B4C
:10033000B53009F4BAE54A9B03C00E948402DECFBF
:100340000E9418020E942702289808950F93AF93E5
:10035000A13019F405E005BD11C0A23019F404E084
:1003600005BD0CC0A33019F403E005BD07C0A430DF
:1003700019F402E005BD02C001E005BDAF910F9187
:1003800008950F93BF93BA3019F40AE107BD4DC029
:10039000BF3019F406E207BD48C0B43119F403E3D5
:1003A00007BD43C0B93119F400E407BD3EC0BE31FA
:1003B00019F40DE407BD39C0B33219F40AE507BDDD
:1003C00034C0B83219F406E607BD2FC0BD3219F4A7
:1003D00003E707BD2AC0B23319F400E807BD25C002
:1003E000B73319F40DE807BD20C0BC3319F40AE98E
:1003F00007BD1BC0B13419F406EA07BD16C0B634F8
:1004000019F403EB07BD11C0BB3419F400EC07BDB0
:100410000CC0B03519F40DEC07BD07C0B53519F4A3
:100420000AED07BD02C006EE07BDBF910F9108950A
:100430009F9329982A982B98913011F4299A05C0F6
:10044000923011F42A9A01C02B9A9F910895BF937C
:10045000AF939F930F935F9800E008B9913069F5CF
:10046000BA505F9ABF5082F0409ABF506AF0419AEA
:10047000BA5052F0429ABA503AF0439ABF5022F022
:10048000449ABF500AF0459AA13019F406E00EB91B
:100490001AC0A23019F405E00EB915C0A33019F442
:1004A00003E00EB910C0A43019F401E00EB90BC07E
:1004B000A530F1F702E00EB906C000EC08B95F986C
:1004C00000E00EB900C00F919F91AF91BF910895C8
:1004D0001F932F933F931FEF2FEF3FE03A95F1F7D4
:1004E0002A95D9F71A95C1F73F912F911F91089539
:1004F0001F9315E01A95F1F71F9108951F9311E5C9
:100500001A95F1F71F9108951F932F931FEF2FEF67
:0E0510002A95F1F71A95D9F72F911F910895AA
:00000001FF
