:020000020000FC
:02000000FFC03F
:0200040018C121
:1000C0003F065B4F666D7D077F6F777C395E797188
:1002000008E00EBF0FEF0DBF0FEF04B90FE00DB9FF
:100210000FE307B900E40AB90FE30BB991E0A4E0DA
:10022000B2E3C5E001E0202E112401E04DBB03E064
:100230004093690024C0F8940E94CA010E94CA0138
:100240005B9B9395943009F491E0589BA395A6305D
:1002500009F4A1E0599BAA9509F4A5E05C9BBC0FA9
:10026000BF3509F4BAE05D9BBC1BB53009F4BAE5B3
:100270005A9B03C00E94DA01DFCF122C18957894A4
:1002800003E804BD0E9460010E9477011214F1F797
:1002900011249130A1F3923019F0933049F0F6CF48
:1002A0007894913061F39230D9F3933009F0F9CF1B
:1002B0007894913021F3923099F39330C9F3F9CFC8
:1002C000A13019F405E005BD0895A23019F404E049
:1002D00005BD0895A33019F403E005BD0895A430C9
:1002E00019F402E005BD089501E005BD0895BA3096
:1002F00019F40AE107BD0895BF3019F406E207BDFD
:100300000895B43119F403E307BD0895B93119F420
:1003100000E407BD0895BE3119F40DE407BD08954A
:10032000B33219F40AE507BD0895B83219F406E6A8
:1003300007BD0895BD3219F403E707BD0895B23330
:1003400019F400E807BD0895B73319F40DE807BDA7
:100350000895BC3319F40AE907BD0895B13419F4BE
:1003600006EA07BD0895B63419F403EB07BD0895F6
:10037000BB3419F400EC07BD0895B03519F40DEC49
:1003800007BD0895B53519F40AED07BD089506EEC9
:1003900007BD08951F932F933F931FEF2FEF3EE666
:1003A0003A95F1F72A95D9F71A95C1F73F912F9110
:1003B0001F9108951F932F9314E624E62A95F1F7D1
:0A03C0001A95D9F72F911F910895A7
:00000001FF
